{
  "_format": "hh-sol-artifact-1",
  "contractName": "FHEStake",
  "sourceName": "contracts/FHEStake.sol",
  "abi": [
    {
      "inputs": [
        {
          "internalType": "uint256",
          "name": "_rewardRate",
          "type": "uint256"
        }
      ],
      "stateMutability": "nonpayable",
      "type": "constructor"
    },
    {
      "anonymous": false,
      "inputs": [
        {
          "indexed": true,
          "internalType": "address",
          "name": "user",
          "type": "address"
        },
        {
          "indexed": false,
          "internalType": "uint256",
          "name": "reward",
          "type": "uint256"
        }
      ],
      "name": "RewardPaid",
      "type": "event"
    },
    {
      "anonymous": false,
      "inputs": [
        {
          "indexed": false,
          "internalType": "uint256",
          "name": "newRate",
          "type": "uint256"
        }
      ],
      "name": "RewardRateChanged",
      "type": "event"
    },
    {
      "anonymous": false,
      "inputs": [
        {
          "indexed": true,
          "internalType": "address",
          "name": "user",
          "type": "address"
        },
        {
          "indexed": false,
          "internalType": "uint256",
          "name": "amount",
          "type": "uint256"
        }
      ],
      "name": "Staked",
      "type": "event"
    },
    {
      "anonymous": false,
      "inputs": [
        {
          "indexed": true,
          "internalType": "address",
          "name": "user",
          "type": "address"
        },
        {
          "indexed": false,
          "internalType": "uint256",
          "name": "amount",
          "type": "uint256"
        }
      ],
      "name": "Withdrawn",
      "type": "event"
    },
    {
      "inputs": [
        {
          "internalType": "address",
          "name": "",
          "type": "address"
        }
      ],
      "name": "balances",
      "outputs": [
        {
          "internalType": "uint256",
          "name": "",
          "type": "uint256"
        }
      ],
      "stateMutability": "view",
      "type": "function"
    },
    {
      "inputs": [
        {
          "internalType": "externalEuint32",
          "name": "inputEuint32",
          "type": "bytes32"
        },
        {
          "internalType": "bytes",
          "name": "inputProof",
          "type": "bytes"
        }
      ],
      "name": "claimEncryptedReward",
      "outputs": [],
      "stateMutability": "nonpayable",
      "type": "function"
    },
    {
      "inputs": [],
      "name": "claimReward",
      "outputs": [],
      "stateMutability": "nonpayable",
      "type": "function"
    },
    {
      "inputs": [
        {
          "internalType": "address",
          "name": "account",
          "type": "address"
        }
      ],
      "name": "earned",
      "outputs": [
        {
          "internalType": "uint256",
          "name": "",
          "type": "uint256"
        }
      ],
      "stateMutability": "view",
      "type": "function"
    },
    {
      "inputs": [
        {
          "internalType": "address",
          "name": "",
          "type": "address"
        }
      ],
      "name": "encryptedRewards",
      "outputs": [
        {
          "internalType": "euint32",
          "name": "",
          "type": "bytes32"
        }
      ],
      "stateMutability": "view",
      "type": "function"
    },
    {
      "inputs": [],
      "name": "exit",
      "outputs": [],
      "stateMutability": "nonpayable",
      "type": "function"
    },
    {
      "inputs": [
        {
          "internalType": "address",
          "name": "account",
          "type": "address"
        }
      ],
      "name": "getEncryptedRewards",
      "outputs": [
        {
          "internalType": "euint32",
          "name": "",
          "type": "bytes32"
        }
      ],
      "stateMutability": "view",
      "type": "function"
    },
    {
      "inputs": [
        {
          "internalType": "address",
          "name": "user",
          "type": "address"
        }
      ],
      "name": "initializeEncryptedRewards",
      "outputs": [],
      "stateMutability": "nonpayable",
      "type": "function"
    },
    {
      "inputs": [],
      "name": "lastUpdateTime",
      "outputs": [
        {
          "internalType": "uint256",
          "name": "",
          "type": "uint256"
        }
      ],
      "stateMutability": "view",
      "type": "function"
    },
    {
      "inputs": [],
      "name": "owner",
      "outputs": [
        {
          "internalType": "address",
          "name": "",
          "type": "address"
        }
      ],
      "stateMutability": "view",
      "type": "function"
    },
    {
      "inputs": [],
      "name": "protocolId",
      "outputs": [
        {
          "internalType": "uint256",
          "name": "",
          "type": "uint256"
        }
      ],
      "stateMutability": "pure",
      "type": "function"
    },
    {
      "inputs": [
        {
          "internalType": "address",
          "name": "user",
          "type": "address"
        }
      ],
      "name": "resetReward",
      "outputs": [],
      "stateMutability": "nonpayable",
      "type": "function"
    },
    {
      "inputs": [],
      "name": "rewardPerToken",
      "outputs": [
        {
          "internalType": "uint256",
          "name": "",
          "type": "uint256"
        }
      ],
      "stateMutability": "view",
      "type": "function"
    },
    {
      "inputs": [],
      "name": "rewardPerTokenStored",
      "outputs": [
        {
          "internalType": "uint256",
          "name": "",
          "type": "uint256"
        }
      ],
      "stateMutability": "view",
      "type": "function"
    },
    {
      "inputs": [],
      "name": "rewardRate",
      "outputs": [
        {
          "internalType": "uint256",
          "name": "",
          "type": "uint256"
        }
      ],
      "stateMutability": "view",
      "type": "function"
    },
    {
      "inputs": [
        {
          "internalType": "address",
          "name": "",
          "type": "address"
        }
      ],
      "name": "rewards",
      "outputs": [
        {
          "internalType": "uint256",
          "name": "",
          "type": "uint256"
        }
      ],
      "stateMutability": "view",
      "type": "function"
    },
    {
      "inputs": [
        {
          "internalType": "uint256",
          "name": "_rate",
          "type": "uint256"
        }
      ],
      "name": "setRewardRate",
      "outputs": [],
      "stateMutability": "nonpayable",
      "type": "function"
    },
    {
      "inputs": [],
      "name": "stake",
      "outputs": [],
      "stateMutability": "payable",
      "type": "function"
    },
    {
      "inputs": [
        {
          "internalType": "address",
          "name": "",
          "type": "address"
        }
      ],
      "name": "userRewardPerTokenPaid",
      "outputs": [
        {
          "internalType": "uint256",
          "name": "",
          "type": "uint256"
        }
      ],
      "stateMutability": "view",
      "type": "function"
    },
    {
      "inputs": [
        {
          "internalType": "uint256",
          "name": "amount",
          "type": "uint256"
        }
      ],
      "name": "withdraw",
      "outputs": [],
      "stateMutability": "nonpayable",
      "type": "function"
    },
    {
      "stateMutability": "payable",
      "type": "receive"
    }
  ],
  "bytecode": "0x608060405234801561000f575f5ffd5b5060405161176238038061176283398101604081905261002e91610325565b6101826100cc604080516080810182525f808252602082018190529181018290526060810191909152506040805160808101825273687820221192c5b662b25367f70076a37bc79b6c815273848b0066793bcc60346da1f49049357399b8d595602082015273a02cda4ca3a71d7c46997716f4283aa851c2881291810191909152731364cbbf2cdf5032c47d8226a6f6fbd2afcdacac606082015290565b80515f5160206117425f395f51905f5280546001600160a01b03199081166001600160a01b039384161790915560208301515f5160206117225f395f51905f528054831691841691909117905560408301517f9e7b61f58c47dc699ac88507c4f5bb9f121c03808c5676a8078fe583e46497028054831691841691909117905560608301517f9e7b61f58c47dc699ac88507c4f5bb9f121c03808c5676a8078fe583e46497038054909216921691909117905550565b600880546001600160a01b031916331790555f818155426001556101a5906101df565b335f9081526004602052604090208190556101bf906101f7565b50335f818152600460205260409020546101d891610206565b505061036c565b5f6101f163ffffffff83166004610218565b92915050565b5f61020282306102af565b5090565b5f61021183836102af565b5090919050565b5f5160206117225f395f51905f5254604051639cd07acb60e01b81525f915f5160206117425f395f51905f52916001600160a01b0390911690639cd07acb90610267908790879060040161033c565b6020604051808303815f875af1158015610283573d5f5f3e3d5ffd5b505050506040513d601f19601f820116820180604052508101906102a79190610325565b949350505050565b5f5f5160206117425f395f51905f528054604051635ca4b5b160e11b8152600481018690526001600160a01b03858116602483015292935091169063b9496b62906044015f604051808303815f87803b15801561030a575f5ffd5b505af115801561031c573d5f5f3e3d5ffd5b50505050505050565b5f60208284031215610335575f5ffd5b5051919050565b828152604081016054831061035f57634e487b7160e01b5f52602160045260245ffd5b8260208301529392505050565b6113a9806103795f395ff3fe608060405260043610610159575f3560e01c80638b876347116100bb578063cd3daf9d11610071578063df136d6511610057578063df136d6514610398578063e9fad8ee146103ad578063eb1de907146103c1575f5ffd5b8063cd3daf9d14610370578063da1f12ab14610384575f5ffd5b80639e447fc6116100a15780639e447fc614610328578063b88a802f14610347578063c8f33c911461035b575f5ffd5b80638b876347146102c65780638da5cb5b146102f1575f5ffd5b80633a4b66f1116101105780637ef6b99e116100f65780637ef6b99e1461025d5780638811e6821461028857806389091bf4146102a7575f5ffd5b80633a4b66f1146102415780637b0a47ee14610249575f5ffd5b806327e235e31161014057806327e235e3146101c15780632a077d8c146101ec5780632e1a7d4d14610220575f5ffd5b80628cc262146101645780630700037d14610196575f5ffd5b3661016057005b5f5ffd5b34801561016f575f5ffd5b5061018361017e3660046111d3565b6103e0565b6040519081526020015b60405180910390f35b3480156101a1575f5ffd5b506101836101b03660046111d3565b60066020525f908152604090205481565b3480156101cc575f5ffd5b506101836101db3660046111d3565b60056020525f908152604090205481565b3480156101f7575f5ffd5b506101836102063660046111d3565b6001600160a01b03165f9081526004602052604090205490565b34801561022b575f5ffd5b5061023f61023a3660046111f9565b61045b565b005b61023f610661565b348015610254575f5ffd5b506101835f5481565b348015610268575f5ffd5b506101836102773660046111d3565b60046020525f908152604090205481565b348015610293575f5ffd5b5061023f6102a2366004611210565b6107d3565b3480156102b2575f5ffd5b5061023f6102c13660046111d3565b6109dc565b3480156102d1575f5ffd5b506101836102e03660046111d3565b60036020525f908152604090205481565b3480156102fc575f5ffd5b50600854610310906001600160a01b031681565b6040516001600160a01b03909116815260200161018d565b348015610333575f5ffd5b5061023f6103423660046111f9565b610a2f565b348015610352575f5ffd5b5061023f610b62565b348015610366575f5ffd5b5061018360015481565b34801561037b575f5ffd5b50610183610d3f565b34801561038f575f5ffd5b50612711610183565b3480156103a3575f5ffd5b5061018360025481565b3480156103b8575f5ffd5b5061023f610d9a565b3480156103cc575f5ffd5b5061023f6103db3660046111d3565b610dbc565b6001600160a01b0381165f908152600660209081526040808320546003909252822054670de0b6b3a764000090610415610d3f565b61041f919061129b565b6001600160a01b0385165f9081526005602052604090205461044191906112ae565b61044b91906112c5565b61045591906112e4565b92915050565b33610464610d3f565b600255426001556001600160a01b03811615610512575f610484826103e0565b6001600160a01b0383165f90815260066020908152604080832084905560025460039092528220559091506104c66104c164e8d4a51000846112c5565b610e21565b6001600160a01b0384165f90815260046020526040902081905590506104eb81610e33565b506001600160a01b0383165f9081526004602052604090205461050e9084610e42565b5050505b5f82116105665760405162461bcd60e51b815260206004820152601160248201527f43616e6e6f74207769746864726177203000000000000000000000000000000060448201526064015b60405180910390fd5b335f908152600560205260409020548211156105c45760405162461bcd60e51b815260206004820152601160248201527f4e6f7420656e6f756768207374616b6564000000000000000000000000000000604482015260640161055d565b8160075f8282546105d5919061129b565b9091555050335f90815260056020526040812080548492906105f890849061129b565b9091555050604051339083156108fc029084905f818181858888f19350505050158015610627573d5f5f3e3d5ffd5b5060405182815233907f7084f5476618d8e60b11ef0d7d3f06914655adb8793e28ff7f018d4c76d505d59060200160405180910390a25050565b3361066a610d3f565b600255426001556001600160a01b03811615610713575f61068a826103e0565b6001600160a01b0383165f90815260066020908152604080832084905560025460039092528220559091506106c76104c164e8d4a51000846112c5565b6001600160a01b0384165f90815260046020526040902081905590506106ec81610e33565b506001600160a01b0383165f9081526004602052604090205461070f9084610e42565b5050505b5f34116107625760405162461bcd60e51b815260206004820152600e60248201527f43616e6e6f74207374616b652030000000000000000000000000000000000000604482015260640161055d565b3460075f82825461077391906112e4565b9091555050335f90815260056020526040812080543492906107969084906112e4565b909155505060405134815233907f9e71bc8eea02a63969f509818f2dafb9254532904319f9dbda79b67bd34a5f3d9060200160405180910390a250565b336107dc610d3f565b600255426001556001600160a01b03811615610885575f6107fc826103e0565b6001600160a01b0383165f90815260066020908152604080832084905560025460039092528220559091506108396104c164e8d4a51000846112c5565b6001600160a01b0384165f908152600460205260409020819055905061085e81610e33565b506001600160a01b0383165f908152600460205260409020546108819084610e42565b5050505b5f6108c58585858080601f0160208091040260200160405190810160405280939291908181526020018383808284375f92019190915250610e5492505050565b335f908152600460209081526040808320546006909252909120549192509064e8d4a51000478183108015906108fa57505f81115b156109d1575f81841161090d578361090f565b815b905061091b818561129b565b335f908152600660205260409020556109348587610e68565b335f90815260046020526040902081905561094e90610e33565b50335f8181526004602052604090205461096791610e42565b5080156109cf57604051339082156108fc029083905f818181858888f19350505050158015610998573d5f5f3e3d5ffd5b5060405181815233907fe2403640ba68fed3a2f88b7557551d1993f84b99bb10ff833f0cf8db0c5e04869060200160405180910390a25b505b505050505050505050565b6109e55f610e21565b6001600160a01b0382165f908152600460205260409020819055610a0890610e33565b506001600160a01b0381165f90815260046020526040902054610a2b9082610e42565b5050565b6008546001600160a01b03163314610a755760405162461bcd60e51b81526020600482015260096024820152682737ba1037bbb732b960b91b604482015260640161055d565b5f610a7e610d3f565b600255426001556001600160a01b03811615610b27575f610a9e826103e0565b6001600160a01b0383165f9081526006602090815260408083208490556002546003909252822055909150610adb6104c164e8d4a51000846112c5565b6001600160a01b0384165f9081526004602052604090208190559050610b0081610e33565b506001600160a01b0383165f90815260046020526040902054610b239084610e42565b5050505b5f8290556040518281527f1e3be2efa25bca5bff2215c7b30b31086e703d6aa7d9b9a1f8ba62c5291219ad9060200160405180910390a15050565b33610b6b610d3f565b600255426001556001600160a01b03811615610c14575f610b8b826103e0565b6001600160a01b0383165f9081526006602090815260408083208490556002546003909252822055909150610bc86104c164e8d4a51000846112c5565b6001600160a01b0384165f9081526004602052604090208190559050610bed81610e33565b506001600160a01b0383165f90815260046020526040902054610c109084610e42565b5050505b335f9081526006602052604090205464e8d4a5100047818310801590610c3957505f81115b15610d39575f818411610c4c5783610c4e565b815b9050610c5a818561129b565b335f90815260066020526040812091909155610c7e6104c164e8d4a51000846112c5565b335f90815260046020526040902054909150610c9a8183610e68565b335f908152600460205260409020819055610cb490610e33565b50335f81815260046020526040902054610ccd91610e42565b508215610d3557604051339084156108fc029085905f818181858888f19350505050158015610cfe573d5f5f3e3d5ffd5b5060405183815233907fe2403640ba68fed3a2f88b7557551d1993f84b99bb10ff833f0cf8db0c5e04869060200160405180910390a25b5050505b50505050565b5f6007545f03610d50575060025490565b6007545f54600154610d62904261129b565b610d6c91906112ae565b610d7e90670de0b6b3a76400006112ae565b610d8891906112c5565b600254610d9591906112e4565b905090565b335f90815260056020526040902054610db29061045b565b610dba610b62565b565b6008546001600160a01b03163314610e025760405162461bcd60e51b81526020600482015260096024820152682737ba1037bbb732b960b91b604482015260640161055d565b6001600160a01b0381165f9081526006602052604081208190556109e5905b5f6104558263ffffffff166004610e96565b5f610e3e8230610f53565b5090565b5f610e4d8383610f53565b5090919050565b5f610e6183836004610fd3565b9392505050565b5f82610e7a57610e775f610e21565b92505b81610e8b57610e885f610e21565b91505b610e6183835f6110f3565b7f9e7b61f58c47dc699ac88507c4f5bb9f121c03808c5676a8078fe583e464970154604051639cd07acb60e01b81525f917f9e7b61f58c47dc699ac88507c4f5bb9f121c03808c5676a8078fe583e4649700916001600160a01b0390911690639cd07acb90610f0b9087908790600401611317565b6020604051808303815f875af1158015610f27573d5f5f3e3d5ffd5b505050506040513d601f19601f82011682018060405250810190610f4b919061132b565b949350505050565b5f7f9e7b61f58c47dc699ac88507c4f5bb9f121c03808c5676a8078fe583e46497008054604051635ca4b5b160e11b8152600481018690526001600160a01b03858116602483015292935091169063b9496b62906044015f604051808303815f87803b158015610fc1575f5ffd5b505af1158015610d35573d5f5f3e3d5ffd5b7f9e7b61f58c47dc699ac88507c4f5bb9f121c03808c5676a8078fe583e46497015460405163196d0b9b60e01b81525f917f9e7b61f58c47dc699ac88507c4f5bb9f121c03808c5676a8078fe583e4649700916001600160a01b039091169063196d0b9b9061104c908890339089908990600401611342565b6020604051808303815f875af1158015611068573d5f5f3e3d5ffd5b505050506040513d601f19601f8201168201806040525081019061108c919061132b565b8154604051630f8e573b60e21b8152600481018390523360248201529193506001600160a01b031690633e395cec906044015f604051808303815f87803b1580156110d5575f5ffd5b505af11580156110e7573d5f5f3e3d5ffd5b50505050509392505050565b5f5f82156111065750600160f81b611109565b505f5b5f7f9e7b61f58c47dc699ac88507c4f5bb9f121c03808c5676a8078fe583e464970060018101546040516303056db360e31b815260048101899052602481018890527fff00000000000000000000000000000000000000000000000000000000000000851660448201529192506001600160a01b03169063182b6d98906064016020604051808303815f875af11580156111a5573d5f5f3e3d5ffd5b505050506040513d601f19601f820116820180604052508101906111c9919061132b565b9695505050505050565b5f602082840312156111e3575f5ffd5b81356001600160a01b0381168114610e61575f5ffd5b5f60208284031215611209575f5ffd5b5035919050565b5f5f5f60408486031215611222575f5ffd5b83359250602084013567ffffffffffffffff81111561123f575f5ffd5b8401601f8101861361124f575f5ffd5b803567ffffffffffffffff811115611265575f5ffd5b866020828401011115611276575f5ffd5b939660209190910195509293505050565b634e487b7160e01b5f52601160045260245ffd5b8181038181111561045557610455611287565b808202811582820484141761045557610455611287565b5f826112df57634e487b7160e01b5f52601260045260245ffd5b500490565b8082018082111561045557610455611287565b6054811061131357634e487b7160e01b5f52602160045260245ffd5b9052565b82815260408101610e6160208301846112f7565b5f6020828403121561133b575f5ffd5b5051919050565b8481526001600160a01b0384166020820152608060408201525f8351806080840152806020860160a085015e5f60a0828501015260a0601f19601f83011684010191505061139360608301846112f7565b9594505050505056fea164736f6c634300081b000a9e7b61f58c47dc699ac88507c4f5bb9f121c03808c5676a8078fe583e46497019e7b61f58c47dc699ac88507c4f5bb9f121c03808c5676a8078fe583e4649700",
  "linkReferences": {},
  "deployedLinkReferences": {}
}